{
  "contractName": "ERC20",
  "abi": [
    {
      "inputs": [
        {
          "internalType": "string",
          "name": "_name",
          "type": "string"
        },
        {
          "internalType": "string",
          "name": "_symbol",
          "type": "string"
        }
      ],
      "stateMutability": "nonpayable",
      "type": "constructor"
    },
    {
      "anonymous": false,
      "inputs": [
        {
          "indexed": true,
          "internalType": "address",
          "name": "owner",
          "type": "address"
        },
        {
          "indexed": true,
          "internalType": "address",
          "name": "spender",
          "type": "address"
        },
        {
          "indexed": false,
          "internalType": "uint256",
          "name": "value",
          "type": "uint256"
        }
      ],
      "name": "Approval",
      "type": "event"
    },
    {
      "anonymous": false,
      "inputs": [
        {
          "indexed": true,
          "internalType": "address",
          "name": "from",
          "type": "address"
        },
        {
          "indexed": true,
          "internalType": "address",
          "name": "to",
          "type": "address"
        },
        {
          "indexed": false,
          "internalType": "uint256",
          "name": "value",
          "type": "uint256"
        }
      ],
      "name": "Transfer",
      "type": "event"
    },
    {
      "inputs": [
        {
          "internalType": "address",
          "name": "",
          "type": "address"
        },
        {
          "internalType": "address",
          "name": "",
          "type": "address"
        }
      ],
      "name": "allownce",
      "outputs": [
        {
          "internalType": "uint256",
          "name": "",
          "type": "uint256"
        }
      ],
      "stateMutability": "view",
      "type": "function"
    },
    {
      "inputs": [
        {
          "internalType": "address",
          "name": "",
          "type": "address"
        }
      ],
      "name": "balanceOf",
      "outputs": [
        {
          "internalType": "uint256",
          "name": "",
          "type": "uint256"
        }
      ],
      "stateMutability": "view",
      "type": "function"
    },
    {
      "inputs": [],
      "name": "name",
      "outputs": [
        {
          "internalType": "string",
          "name": "",
          "type": "string"
        }
      ],
      "stateMutability": "view",
      "type": "function"
    },
    {
      "inputs": [],
      "name": "symbol",
      "outputs": [
        {
          "internalType": "string",
          "name": "",
          "type": "string"
        }
      ],
      "stateMutability": "view",
      "type": "function"
    },
    {
      "inputs": [],
      "name": "totalSupply",
      "outputs": [
        {
          "internalType": "uint256",
          "name": "",
          "type": "uint256"
        }
      ],
      "stateMutability": "view",
      "type": "function"
    },
    {
      "inputs": [],
      "name": "decimals",
      "outputs": [
        {
          "internalType": "uint8",
          "name": "",
          "type": "uint8"
        }
      ],
      "stateMutability": "pure",
      "type": "function"
    },
    {
      "inputs": [
        {
          "internalType": "address",
          "name": "recipient",
          "type": "address"
        },
        {
          "internalType": "uint256",
          "name": "amount",
          "type": "uint256"
        }
      ],
      "name": "transfer",
      "outputs": [
        {
          "internalType": "bool",
          "name": "",
          "type": "bool"
        }
      ],
      "stateMutability": "nonpayable",
      "type": "function"
    },
    {
      "inputs": [
        {
          "internalType": "address",
          "name": "sender",
          "type": "address"
        },
        {
          "internalType": "address",
          "name": "recipient",
          "type": "address"
        },
        {
          "internalType": "uint256",
          "name": "amount",
          "type": "uint256"
        }
      ],
      "name": "transferFrom",
      "outputs": [
        {
          "internalType": "bool",
          "name": "",
          "type": "bool"
        }
      ],
      "stateMutability": "nonpayable",
      "type": "function"
    },
    {
      "inputs": [
        {
          "internalType": "address",
          "name": "spender",
          "type": "address"
        },
        {
          "internalType": "uint256",
          "name": "amount",
          "type": "uint256"
        }
      ],
      "name": "approve",
      "outputs": [
        {
          "internalType": "bool",
          "name": "",
          "type": "bool"
        }
      ],
      "stateMutability": "nonpayable",
      "type": "function"
    }
  ],
  "bytecode": "0x60806040523480156200001157600080fd5b506040516200140938038062001409833981810160405281019062000037919062000415565b81600190805190602001906200004f929190620001c8565b50806002908051906020019062000068929190620001c8565b50620000843368056bc75e2d631000006200008c60201b60201c565b505062000645565b600073ffffffffffffffffffffffffffffffffffffffff168273ffffffffffffffffffffffffffffffffffffffff1603620000fe576040517f08c379a0000000000000000000000000000000000000000000000000000000008152600401620000f590620004fb565b60405180910390fd5b8060008082825462000111919062000556565b9250508190555080600360008473ffffffffffffffffffffffffffffffffffffffff1673ffffffffffffffffffffffffffffffffffffffff168152602001908152602001600020819055508173ffffffffffffffffffffffffffffffffffffffff16600073ffffffffffffffffffffffffffffffffffffffff167fddf252ad1be2c89b69c2b068fc378daa952ba7f163c4a11628f55a4df523b3ef83604051620001bc9190620005c4565b60405180910390a35050565b828054620001d69062000610565b90600052602060002090601f016020900481019282620001fa576000855562000246565b82601f106200021557805160ff191683800117855562000246565b8280016001018555821562000246579182015b828111156200024557825182559160200191906001019062000228565b5b50905062000255919062000259565b5090565b5b80821115620002745760008160009055506001016200025a565b5090565b6000604051905090565b600080fd5b600080fd5b600080fd5b600080fd5b6000601f19601f8301169050919050565b7f4e487b7100000000000000000000000000000000000000000000000000000000600052604160045260246000fd5b620002e18262000296565b810181811067ffffffffffffffff82111715620003035762000302620002a7565b5b80604052505050565b60006200031862000278565b9050620003268282620002d6565b919050565b600067ffffffffffffffff821115620003495762000348620002a7565b5b620003548262000296565b9050602081019050919050565b60005b838110156200038157808201518184015260208101905062000364565b8381111562000391576000848401525b50505050565b6000620003ae620003a8846200032b565b6200030c565b905082815260208101848484011115620003cd57620003cc62000291565b5b620003da84828562000361565b509392505050565b600082601f830112620003fa57620003f96200028c565b5b81516200040c84826020860162000397565b91505092915050565b600080604083850312156200042f576200042e62000282565b5b600083015167ffffffffffffffff81111562000450576200044f62000287565b5b6200045e85828601620003e2565b925050602083015167ffffffffffffffff81111562000482576200048162000287565b5b6200049085828601620003e2565b9150509250929050565b600082825260208201905092915050565b7f45524332303a206d696e7420746f20746865207a65726f206164647265737300600082015250565b6000620004e3601f836200049a565b9150620004f082620004ab565b602082019050919050565b600060208201905081810360008301526200051681620004d4565b9050919050565b6000819050919050565b7f4e487b7100000000000000000000000000000000000000000000000000000000600052601160045260246000fd5b600062000563826200051d565b915062000570836200051d565b9250827fffffffffffffffffffffffffffffffffffffffffffffffffffffffffffffffff03821115620005a857620005a762000527565b5b828201905092915050565b620005be816200051d565b82525050565b6000602082019050620005db6000830184620005b3565b92915050565b7f4e487b7100000000000000000000000000000000000000000000000000000000600052602260045260246000fd5b600060028204905060018216806200062957607f821691505b6020821081036200063f576200063e620005e1565b5b50919050565b610db480620006556000396000f3fe608060405234801561001057600080fd5b50600436106100935760003560e01c8063313ce56711610066578063313ce5671461013457806370a082311461015257806395d89b4114610182578063a20bc7fe146101a0578063a9059cbb146101d057610093565b806306fdde0314610098578063095ea7b3146100b657806318160ddd146100e657806323b872dd14610104575b600080fd5b6100a0610200565b6040516100ad919061085d565b60405180910390f35b6100d060048036038101906100cb9190610918565b61028e565b6040516100dd9190610973565b60405180910390f35b6100ee6103ee565b6040516100fb919061099d565b60405180910390f35b61011e600480360381019061011991906109b8565b6103f4565b60405161012b9190610973565b60405180910390f35b61013c6104ce565b6040516101499190610a27565b60405180910390f35b61016c60048036038101906101679190610a42565b6104d7565b604051610179919061099d565b60405180910390f35b61018a6104ef565b604051610197919061085d565b60405180910390f35b6101ba60048036038101906101b59190610a6f565b61057d565b6040516101c7919061099d565b60405180910390f35b6101ea60048036038101906101e59190610918565b6105a2565b6040516101f79190610973565b60405180910390f35b6001805461020d90610ade565b80601f016020809104026020016040519081016040528092919081815260200182805461023990610ade565b80156102865780601f1061025b57610100808354040283529160200191610286565b820191906000526020600020905b81548152906001019060200180831161026957829003601f168201915b505050505081565b60008073ffffffffffffffffffffffffffffffffffffffff168373ffffffffffffffffffffffffffffffffffffffff16036102fe576040517f08c379a00000000000000000000000000000000000000000000000000000000081526004016102f590610b81565b60405180910390fd5b81600460003373ffffffffffffffffffffffffffffffffffffffff1673ffffffffffffffffffffffffffffffffffffffff16815260200190815260200160002060008573ffffffffffffffffffffffffffffffffffffffff1673ffffffffffffffffffffffffffffffffffffffff168152602001908152602001600020819055508273ffffffffffffffffffffffffffffffffffffffff163373ffffffffffffffffffffffffffffffffffffffff167f8c5be1e5ebec7d5bd14f71427d1e84f3dd0314c0f7b2291e5b200ac8c7c3b925846040516103dc919061099d565b60405180910390a36001905092915050565b60005481565b600080600460008673ffffffffffffffffffffffffffffffffffffffff1673ffffffffffffffffffffffffffffffffffffffff16815260200190815260200160002060003373ffffffffffffffffffffffffffffffffffffffff1673ffffffffffffffffffffffffffffffffffffffff168152602001908152602001600020549050828110156104b9576040517f08c379a00000000000000000000000000000000000000000000000000000000081526004016104b090610c13565b60405180910390fd5b6104c48585856105b7565b9150509392505050565b60006012905090565b60036020528060005260406000206000915090505481565b600280546104fc90610ade565b80601f016020809104026020016040519081016040528092919081815260200182805461052890610ade565b80156105755780601f1061054a57610100808354040283529160200191610575565b820191906000526020600020905b81548152906001019060200180831161055857829003601f168201915b505050505081565b6004602052816000526040600020602052806000526040600020600091509150505481565b60006105af3384846105b7565b905092915050565b60008073ffffffffffffffffffffffffffffffffffffffff168373ffffffffffffffffffffffffffffffffffffffff1603610627576040517f08c379a000000000000000000000000000000000000000000000000000000000815260040161061e90610b81565b60405180910390fd5b6000600360008673ffffffffffffffffffffffffffffffffffffffff1673ffffffffffffffffffffffffffffffffffffffff168152602001908152602001600020549050828110156106ae576040517f08c379a00000000000000000000000000000000000000000000000000000000081526004016106a590610ca5565b60405180910390fd5b82816106ba9190610cf4565b600360008773ffffffffffffffffffffffffffffffffffffffff1673ffffffffffffffffffffffffffffffffffffffff1681526020019081526020016000208190555082600360008673ffffffffffffffffffffffffffffffffffffffff1673ffffffffffffffffffffffffffffffffffffffff168152602001908152602001600020600082825461074c9190610d28565b925050819055508373ffffffffffffffffffffffffffffffffffffffff168573ffffffffffffffffffffffffffffffffffffffff167fddf252ad1be2c89b69c2b068fc378daa952ba7f163c4a11628f55a4df523b3ef856040516107b0919061099d565b60405180910390a360019150509392505050565b600081519050919050565b600082825260208201905092915050565b60005b838110156107fe5780820151818401526020810190506107e3565b8381111561080d576000848401525b50505050565b6000601f19601f8301169050919050565b600061082f826107c4565b61083981856107cf565b93506108498185602086016107e0565b61085281610813565b840191505092915050565b600060208201905081810360008301526108778184610824565b905092915050565b600080fd5b600073ffffffffffffffffffffffffffffffffffffffff82169050919050565b60006108af82610884565b9050919050565b6108bf816108a4565b81146108ca57600080fd5b50565b6000813590506108dc816108b6565b92915050565b6000819050919050565b6108f5816108e2565b811461090057600080fd5b50565b600081359050610912816108ec565b92915050565b6000806040838503121561092f5761092e61087f565b5b600061093d858286016108cd565b925050602061094e85828601610903565b9150509250929050565b60008115159050919050565b61096d81610958565b82525050565b60006020820190506109886000830184610964565b92915050565b610997816108e2565b82525050565b60006020820190506109b2600083018461098e565b92915050565b6000806000606084860312156109d1576109d061087f565b5b60006109df868287016108cd565b93505060206109f0868287016108cd565b9250506040610a0186828701610903565b9150509250925092565b600060ff82169050919050565b610a2181610a0b565b82525050565b6000602082019050610a3c6000830184610a18565b92915050565b600060208284031215610a5857610a5761087f565b5b6000610a66848285016108cd565b91505092915050565b60008060408385031215610a8657610a8561087f565b5b6000610a94858286016108cd565b9250506020610aa5858286016108cd565b9150509250929050565b7f4e487b7100000000000000000000000000000000000000000000000000000000600052602260045260246000fd5b60006002820490506001821680610af657607f821691505b602082108103610b0957610b08610aaf565b5b50919050565b7f45524332303a207472616e7366657220746f20746865207a65726f206164647260008201527f6573730000000000000000000000000000000000000000000000000000000000602082015250565b6000610b6b6023836107cf565b9150610b7682610b0f565b604082019050919050565b60006020820190508181036000830152610b9a81610b5e565b9050919050565b7f45524332303a207472616e73666665722065786365656420616c6c6f77616e6360008201527f6500000000000000000000000000000000000000000000000000000000000000602082015250565b6000610bfd6021836107cf565b9150610c0882610ba1565b604082019050919050565b60006020820190508181036000830152610c2c81610bf0565b9050919050565b7f45524332303a207472616e7366657220616d6f756e742065786365656473206260008201527f616c616e63650000000000000000000000000000000000000000000000000000602082015250565b6000610c8f6026836107cf565b9150610c9a82610c33565b604082019050919050565b60006020820190508181036000830152610cbe81610c82565b9050919050565b7f4e487b7100000000000000000000000000000000000000000000000000000000600052601160045260246000fd5b6000610cff826108e2565b9150610d0a836108e2565b925082821015610d1d57610d1c610cc5565b5b828203905092915050565b6000610d33826108e2565b9150610d3e836108e2565b9250827fffffffffffffffffffffffffffffffffffffffffffffffffffffffffffffffff03821115610d7357610d72610cc5565b5b82820190509291505056fea2646970667358221220403e6f3db7f7dcafba69139928f5da354a24004e5e8a67d26e3299102ecfd00a64736f6c634300080d0033",
  "immutableReferences": {},
  "source": "// SPDX-License-Identifier: MIT\npragma solidity 0.8.13;\n\ncontract ERC20 {\n    uint256 public totalSupply;\n    string public name;\n    string public symbol;\n\n    mapping(address => uint256) public balanceOf;\n    \n    mapping(address => mapping(address => uint256)) public allownce;\n\n    event Transfer(address indexed from, address indexed to, uint256 value);\n    event Approval(address indexed owner, address indexed spender, uint256 value);\n\n    constructor(string memory _name, string memory _symbol) public {\n        name = _name;\n        symbol = _symbol;\n\n        _mint(msg.sender, 100e18);\n    }\n\n    function decimals() external pure returns(uint8){\n      return 18;\n    }\n\n    function transfer(address recipient, uint256 amount) external returns(bool) {\n     return _transfer(msg.sender, recipient, amount);\n    }\n \n    // function transferFrom\n    function transferFrom(address sender, address recipient, uint256 amount) external returns(bool) {\n       \n      uint256 currentAllowance = allownce[sender][msg.sender];\n\n      require(currentAllowance >= amount, \"ERC20: transffer exceed allowance\");\n\n      return _transfer(sender, recipient, amount);\n    }\n\n    function approve(address spender, uint256 amount) external returns(bool){\n      require(spender != address(0), \"ERC20: transfer to the zero address\");\n\n      allownce[msg.sender][spender] = amount;\n      emit Approval(msg.sender, spender, amount);\n\n      return true;\n    }\n\n    function _transfer(address sender, address recipient, uint256 amount) private returns(bool) {\n       require(recipient != address(0), \"ERC20: transfer to the zero address\");\n\n      uint256 senderBalance = balanceOf[sender];\n\n      require(senderBalance >= amount, \"ERC20: transfer amount exceeds balance\");\n      balanceOf[sender] = senderBalance - amount;\n      balanceOf[recipient] += amount;\n\n      emit Transfer(sender, recipient, amount);\n\n      return true;\n    }\n   \n    function _mint(address to, uint256 amount) internal {\n      require(to != address(0), \"ERC20: mint to the zero address\");\n\n      totalSupply += amount;\n      balanceOf[to] = amount;\n\n      emit Transfer(address(0), to, amount);\n    }\n}\n",
  "sourcePath": "C:\\Users\\tanki\\Desktop\\Tankica\\MyProject\\erc20\\contracts\\ERC20.sol",
  "compiler": {
    "name": "solc",
    "version": "0.8.13+commit.abaa5c0e.Emscripten.clang"
  },
  "schemaVersion": "3.4.7",
  "updatedAt": "2022-06-08T21:54:21.734Z",
  "devdoc": {
    "kind": "dev",
    "methods": {},
    "version": 1
  },
  "userdoc": {
    "kind": "user",
    "methods": {},
    "version": 1
  }
}